:020000040802F0
:100000008036002481030208295802086B54020834
:1000100025580208F9070208258A02080000000096
:10002000000000000000000000000000655D020804
:10003000F5090208000000009B5A0208795D0208D9
:100040009B0302089B0302089B0302089B03020810
:100050009B0302089B0302089B0302089B03020800
:100060009B0302089B0302089B0302089B030208F0
:100070009B0302089B0302089B0302089B030208E0
:100080009B0302089B0302089B030208FD09020868
:100090009B0302089B0302089B0302089B030208C0
:1000A0009B0302089B0302089B0302089B030208B0
:1000B0009B030208C95F0208D95F02089B0302087C
:1000C0009B0302089B0302089B0302089B03020890
:1000D0009B0302089B0302089B0302089B03020880
:1000E0009B0302089B030208000000009B03020818
:1000F0009B0302089B0302089B0302089B03020860
:100100009B0302089B030208E95F02089B030208A5
:100110009B0302089B0302089B0302089B0302083F
:100120009B0302089B0302089B0302089B0302082F
:100130009B0302089B0302089B0302089B0302081F
:1001400000000000000000000000000000000000AF
:100150009B0302089B0302089B0302089B030208FF
:100160009B0302089B0302089B0302089B030208EF
:100170009B0302089B0302089B0302080000000087
:100180009B0302089B0302089B0302089B030208CF
:100190009B0302089B0302089B0302089B030208BF
:1001A0009B0302089B0302089B0302089B030208AF
:1001B0009B0302089B0302089B0302089B0302089F
:1001C0009B0302089B0302089B0302089B0302088F
:1001D0009B0302082D5802089B0302089B03020898
:1001E0009B0302089B0302089B0302089B0302086F
:1001F0009B0302089B0302089B0302089B0302085F
:100200009B0302089B0302089B0302089B0302084E
:100210009B0302089B030208B95F02089B030208C4
:100220009B0302089B0302089B03020800000000D6
:100230009B0302089B030208000000009B030208C6
:100240009B0302089B0302089B0302089B0302080E
:100250009B0302089B0302089B0302089B030208FE
:100260009B0302089B0302089B0302089B030208EE
:100270009B0302089B0302089B0302080000000086
:100280009B0302089B0302089B0302080000000076
:10029000000000009B03020800F002F800F060F884
:1002A0000AA090E8000C82448344AAF10107DA45D1
:1002B00001D100F055F8AFF2090EBAE80F0013F0C3
:1002C000010F18BFFB1A43F001031847D8A1000023
:1002D000F8A100000A444FF0000C10F8013B13F0A5
:1002E000070408BF10F8014B1D1108BF10F8015B8F
:1002F000641E05D010F8016B641E01F8016BF9D182
:1003000013F0080F1EBF10F8014BAD1C0C1B09D1D8
:100310006D1E58BF01F801CBFAD505E014F8016B4A
:1003200001F8016B6D1EF9D59142D6D370470000DC
:100330000023002400250026103A28BF78C1FBD8EE
:10034000520728BF30C148BF0B6070471FB509F086
:1003500065FE9DE8030000F071F91FBD10B510BDEA
:1003600000F0C8F91146FFF7F1FF09F0DBF800F0E3
:10037000E6F903B4FFF7F2FF03BC00F017FA000040
:100380000948804709480047FEE7FEE7FEE7FEE729
:10039000FEE7FEE7FEE7FEE7FEE7FEE70448054965
:1003A000054A064B70470000BD5E0208990202082C
:1003B00080300024803600248032002480320024E3
:1003C00070B5064600F01EF9056806F10B0020F036
:1003D0000704B4429CBF002070BD2B466A68BAB1C6
:1003E0001068A04210D304F1080188423CBF506855
:1003F000586007D35168101941601168091B0160EA
:1004000058601460101D70BD13465268002AE7D171
:100410002146284600F0FEF80028DED170BD70B5F8
:100420000446051F00F0EEF80068002C14BF446875
:1004300070BD002C18BFAC423CBF20466468F8D3A6
:1004400001680A18AA4218BF456003D12A68054608
:100450001144016028684119A1421CBF6C6070BD45
:100460006168696021680844286070BD032A40F211
:10047000308010F0030C00F0158011F8013BBCF146
:10048000020F624498BF11F801CB00F8013B38BF5E
:1004900011F8013BA2F1040298BF00F801CB38BF6C
:1004A00000F8013B11F0030300F02580083AC0F08A
:1004B000088051F8043B083A51F804CBA0E8081032
:1004C000F5E7121D5CBF51F8043B40F8043BAFF365
:1004D0000080D20724BF11F8013B11F801CB48BFBF
:1004E00011F8012B24BF00F8013B00F801CB48BFF5
:1004F00000F8012B704710B5203AC0F00B80B1E82E
:100500001850203AA0E81850B1E81850A0E8185048
:10051000BFF4F5AF5FEA027C24BFB1E81850A0E851
:10052000185044BF18C918C0BDE810405FEA827C6B
:1005300024BF51F8043B40F8043B08BF7047D20782
:1005400028BF31F8023B48BF11F8012B28BF20F823
:10055000023B48BF00F8012B704702F0FF0343EA5B
:10056000032242EA024200F002B84FF000020429DE
:10057000C0F0128010F0030C00F01B80CCF1040CD2
:10058000BCF1020F18BF00F8012BA8BF20F8022B06
:10059000A1EB0C0100F00DB85FEAC17C24BF00F8AC
:1005A000012B00F8012B48BF00F8012B70474FF0DA
:1005B000000200B5134694469646203922BFA0E8B3
:1005C0000C50A0E80C50B1F12001BFF4F7AF0907BF
:1005D00028BFA0E80C5048BF0CC05DF804EB8900B0
:1005E00028BF40F8042B08BF704748BF20F8022BF3
:1005F00011F0804F18BF00F8012B7047704770470B
:10060000704700000048704728300024704770474A
:100610007047704738B504460A4600206946AFF374
:100620000080002808BF38BD02460099204600F02F
:100630003FF8012038BD012000F054B8F8B5AFF301
:100640000080054600200C46102000BF0646A81971
:10065000A0420DD9324669460020AFF30080070062
:1006600008BF00F03FF80098A04218BF0546C41923
:10067000FFF7C8FF05600746F01D20F00700461988
:10068000284600F00AF8B44208BFF8BDA21B314664
:100690003868BDE8F84000F00BB800210160C0E9FF
:1006A0000110704710207047004870472030002428
:1006B000034640688C46002818BF88423CBF03466A
:1006C0004068F8D318681844884207D00CF103003A
:1006D00020F00700001D411A521A0146081D0A6049
:1006E000FFF79DBE10B500F039F8BDE8104000F0EE
:1006F0002FB870477546FFF7D7FFAE46050069462D
:10070000534620F00700854618B020B5FFF746FE97
:10071000BDE820404FF000064FF000074FF0000802
:100720004FF0000B21F00701AC46ACE8C009ACE883
:10073000C009ACE8C009ACE8C0098D46704710B5E7
:100740000446AFF300802046BDE81040FFF711BE1D
:10075000002801D000F02AB87047000010B5012829
:1007600005D0002103A000F027F8012010BD09A149
:10077000F8E7000053494752544D454D3A204F7514
:1007800074206F662068656170206D656D6F727989
:10079000000000003A2048656170206D656D6F7241
:1007A0007920636F72727570746564000149182056
:1007B000ABBEFEE72600020070B505460C460A20D7
:1007C00000E06D1C00F011F835B128780028F8D150
:1007D00002E0641C00F009F814B120780028F8D178
:1007E000BDE870400A20AFF3008008B569468DF877
:1007F00000000320ABBE08BD00BFFEE70346042B8C
:1008000015D007DC7BB1012B0ED0022B0DD0032BB2
:1008100012D10BE0202B0BD0212B0AD0222B09D098
:10082000232B09D107E008E007E006E005E004E03B
:1008300003E002E001E000E000BF00BF00207047DD
:100840000020704710B500220449054805F01DFF3F
:100850000449034805F00AFF002010BDC81B00240E
:10086000EC0E0024C813002470B505460C4628463B
:10087000216809F0B5FB208881B2284608F086F986
:100880002946044805F0F2FE024805F0BBFE0020B0
:1008900070BD0000EC0E002410B503460C4600218C
:1008A000084610BD2DE9F04104460D4600260A48D1
:1008B000D0F8BC72D7F8140210B10120BDE8F08165
:1008C0002A462146044805F0E0FE034805F090FF63
:1008D00006463046F2E70000EC0E002470B50446F0
:1008E0000D4600260CB1022D01D8002070BD044831
:1008F00002882946204600F033FB06463046F5E7DD
:100900003400002410B503460C46987821888842AC
:1009100000D010BD208898806188D9806168996076
:10092000A168D960E168196194ED070A83ED080AAE
:1009300094ED080A83ED090AD87860B9FAEE093A0D
:10094000B2EE094ADFED254A9FED255ADFED255A23
:100950009FED256A1EE0D87801280CD1FAEE093AFD
:10096000B2EE094AFBEE044AB3EE045AFBEE0C5A0F
:10097000B3EE0C6A0EE0D87802280BD1FAEE093AF1
:10098000B2EE094ADFED194A9FED195AFAEE045A00
:10099000B2EE046A1021F0EE440AB0EE630A9868E1
:1009A00009F0ECFA83ED050A0C21F0EE450AB0EEF1
:1009B000640AD86809F0E2FA83ED060A0C21F0EE29
:1009C000460AB0EE650A186909F0D8FA83ED070AFD
:1009D000012183F8281000BF9BE70000000034C20B
:1009E00000003442000058C200005842000048C2D3
:1009F00000004842704772B600BFFEE710B50248DB
:100A000000F000FD10BD00004801002410B58AB0C0
:100A100004460020029003900220049001200590DB
:100A200000200690079002A9204600F07EFB08B146
:100A3000FFF7E1FF00200346022211460090204606
:100A400000F0C7FB08B1FFF7D6FF002201212046C6
:100A500000F0CEFA08B1FFF7CEFF204601F0BBF858
:100A600008B1FFF7C8FF0AB010BD000010B501467D
:100A70004A6B0868D0F884004FF6FC74A04340EA43
:100A800082000C68C4F884000868D0F8840020F460
:100A90007F04088F44EA00400C68C4F88400886B27
:100AA00002440868D0F888004FF6FC74A04340EA7E
:100AB00082000C68C4F888000868D0F8880020F428
:100AC000FE04888F44EA00400C68C4F88800C86BB4
:100AD00002EB40020868D0F8A0004FF6FC74A04377
:100AE00040EA82000C68C4F8A0000868D0F8A000B2
:100AF00020F4FE044020405A44EA00400C68C4F848
:100B0000A000D1E9104004FB00220868D0F8B00032
:100B10004FF6FC74A04340EA82000C68C4F8B000B1
:100B20000868D0F8B00020F4FE04B1F8480044EAA8
:100B300000400C68C4F8B000D1E9124004FB002268
:100B40000868D0F8AC004FF6FC74A04340EA82007D
:100B50000C68C4F8AC00D1E9144004FB002208681A
:100B6000D0F8F0004FF6FC74A04340EA82000C6815
:100B7000C4F8F0000868D0F8F00020F47C14B1F854
:100B8000580044EA00400C68C4F8F000886D02EB9D
:100B900040020868D0F8C0004FF6FC74A04340EA59
:100BA00082000C68C4F8C0000868D0F8C00020F4C7
:100BB0007C14B1F85C0044EA00400C68C4F8C00042
:100BC0000868D0F8C00020F07C5491F8600044EA36
:100BD00000600C68C4F8C0002A4C486B04EB80002D
:100BE000C866CC6E886B04EB80040C670C6FC86B16
:100BF00004EBC0044C67D1E9100460434C6F04EB74
:100C000080048C67D1E9120460438C6F04EB80048C
:100C1000CC67D1E914046043CC6F04EB80048020DE
:100C200044504458886D04EBC004842044508C6EBA
:100C3000C86D60438424645804EB800488204450C9
:100C40008C6E086E60438824645804EB8004902006
:100C5000445040580C4CA04209D99831486840F0A3
:100C600020004860032001F89809012010BDCB6ED8
:100C700002E0002018601B1D902040589842F8D8D0
:100C80000020F3E700AC0040FCD300402DE9F04128
:100C9000054614461E46D1F804C0BCF1000F0AD127
:100CA000D1F810C0D1F808804CEA080CB1F80080E7
:100CB0004CEA88430BE0D1F810C04CF0804CD1F8DE
:100CC00008804CEA080CD1F800804CEA080391F83F
:100CD0002080D1F81CC04CEA086CD1F818804CEA8E
:100CE000080CD1F814804CEA080CB1F80C804CEADE
:100CF0000847D5F868C00CFB06FCD5F8848008EBE3
:100D00008C021360121D1760121D002019E000F103
:100D1000030C14F80CC04FEA0C6800F1020C14F834
:100D20000CC048EA0C4800F1010C14F80CC048EA69
:100D30000C2C14F800804CEA080CC2F800C0121DFC
:100D4000001DDFF81480D1F80CC018F80CC08445E1
:100D5000DDD8BDE8F081000028A0020810B501F040
:100D600001037BB1134BDB6823F4E663114CE360B2
:100D700042F0040343EA002343F08003E468234382
:100D80000C4CE36001F00203022B12D10A4B1B68EA
:100D900023F4E663074CC4F80C3142F0040343EA41
:100DA000002343F08003D4F80C412343014CC4F8E2
:100DB0000C3110BD002000520C21005201F0030242
:100DC000032A1BD1234AD26822F03002214BDA6079
:100DD000214A126822F03002C3F80C211A46D26868
:100DE0000243DA601A46D2F80C210243C3F80C2100
:100DF0001A46926942F010029A6129E001F001025C
:100E000072B1144AD26822F03002124BDA601A46EC
:100E1000D2680243DA601A46D26842F08802DA6089
:100E200001F00202022A13D10B4A126822F03002AA
:100E3000084BC3F80C211A46D2F80C210243C3F820
:100E40000C211A46D2F80C2142F08802C3F80C217A
:100E500070470000002000520C2100522DE9F041A3
:100E600007460E460424002501F074F98046022E40
:100E700000D1344C0BE0781C48B101F06BF9A0EBC9
:100E80000800B84200D817B90320BDE8F0812E4809
:100E90002040A04208D12D4800692040A04201D145
:100EA00001200DE000200BE02948006824F00041FB
:100EB000084024F00041884201D1012000E00020D8
:100EC0000028D8D1012E05D120480069214900EA27
:100ED000010505E01E4800681F49084040F0004534
:100EE00025F0004090B11D48806928431B49886166
:100EF00015482840A84202D11448456104E025F075
:100F000000401349091D08600120BEE7012E0AD1E7
:100F10000E48006900F48030B0F5803F0FD13004F6
:100F20000A4948610BE00A48006800F48030B0F5D7
:100F3000803F04D14FF480300549091D086000202E
:100F4000A3E70000040000800F00EF1F0020005204
:100F5000102100520000EE170000EE971803002445
:100F600030B5034613B94FF6FF7030BD09E013F8F2
:100F7000014B82EA0400C0B2054D35F8100080EA4A
:100F80002222081EA1F10101F1D11046EDE7000077
:100F9000A4A1020870B50A480468001D0568001D78
:100FA0000668344454B108220649204604F05FFA2A
:100FB000042204491031284604F059FA70BD00009B
:100FC00000E8F11F7E00002470B5044601F0C2F86D
:100FD00006462546681C10B104480078054400BF49
:100FE00001F0B8F8801BA842FAD370BD14000024A9
:100FF00030B5034693F89840012C01D0022C3ED125
:101000001868806D084030B91868C06D40F0010064
:101010001D68E8650EE01868806D0840884206D1BA
:101020001868C06D40F002001D68E86502E003200A
:101030001D68E86501F4007030B11868D0F8E00070
:1010400010431D68C5F8E00001F4806030B11868F5
:10105000D0F8E40010431D68C5F8E40000BF18682C
:10106000406D0B4D0D4028431D68686509480068B8
:1010700040EA9170074D286000BF002030BDD3F8D2
:101080009C0040F00200C3F89C000120F6E700003D
:10109000FFFFCF3F14A800402DE9F04104460E4663
:1010A0001746706800B900E000BF94F89800022865
:1010B00032D12068D0F8C00000F07C5040B9D4F89C
:1010C0009C0040F02000C4F89C000120BDE8F081A5
:1010D0002068D0F8C40000F4001038B1D4F89C00A7
:1010E00040F40070C4F89C000120EFE72068D0F8BD
:1010F000C400C0F304452B463A4631462046FFF76C
:10110000C5FD0120A8402168C1F8D0000120A840F9
:10111000C4F894000020D9E7D4F89C0040F00800FF
:10112000C4F89C000120D1E77047F0B5024692F860
:101130009860012E01D0022E43D1C868072800D143
:1011400000BF086818BBC868072800D000BFC8687F
:1011500007280BD1088A4FF0605747EA0040CF6953
:1011600040EA07208F6940EA07040AE0087A80070E
:101170000F7B40EAC7600F8A40EA07404F6940EAA8
:101180000704D76E486807EB80031C6017E0C86847
:10119000072800D000BF0F7B086940EA4774C86881
:1011A000072801D18D6903E00F7A486940EA877505
:1011B000176F486807EBC0031C601B1D1D600020F3
:1011C000F0BDD2F89C0040F00200C2F89C00012063
:1011D000F6E770B50446049D94F8980001280AD1FA
:1011E000080140EA820040EA430028432668C6F826
:1011F0008000002070BDD4F89C0040F00400C4F8CA
:101200009C000120F6E77047704700002DE9F0438D
:1012100004460D469C46002394F89880B8F1020FCE
:1012200074D1402D38D12068D0F8A00000F4FE0021
:1012300040B9D4F89C0040F02000C4F89C00012084
:10124000BDE8F0832068D0F8A40000F07F0038B932
:10125000D4F89C0040F48070C4F89C000120EFE7B3
:101260002068D0F8A400C0F3006040B12068D0F836
:10127000A0004FF00109B9EBD07F00D10123206815
:10128000D0F8A400C0F305200344606C5843D4F8A0
:10129000749009EB80014BE0412D38D12068D0F8E3
:1012A000B00000F4FE0038B9D4F89C0040F02000F3
:1012B000C4F89C000120C3E72068D0F8B40000F017
:1012C0007F0038B9D4F89C0040F48070C4F89C00CA
:1012D0000120B5E72068D0F8B400C0F3006040B149
:1012E0002068D0F8B0004FF00109B9EBD07F00D1F1
:1012F00001232068D0F8B400C0F305200344E06C5B
:101300005843D4F8789009EB800111E06DE0206D2E
:10131000A84207D8D4F89C0040F02000C4F89C00F4
:1013200001208DE7606D6843D4F87C9009EB800163
:10133000086800F080405060506820B90868C0F329
:101340008A40106003E0086820F060401060086880
:1013500000F000509060086800F000401061091D26
:10136000088880B2D0610868C0F30340D060086884
:1013700000F480105061086800F400109061086863
:10138000C0F3066010620868C00F5062091D0F4666
:10139000002603E0B85D0CF80600761CDFF85C90D0
:1013A000D06819F80000B042F4D8402D03D120686D
:1013B000C0F8A83017E0412D03D12068C0F8B8303C
:1013C00011E0202D06D20120A840D4F80090C9F8E1
:1013D000980008E005F01F09012000FA09F0D4F890
:1013E0000090C9F89C0000202AE7D4F89C0040F047
:1013F0000800C4F89C00012022E7000028A0020891
:10140000704700002DE9F04F8DB00446EF480068AA
:101410008707EE48001D006807EA80772068006DA6
:1014200000F470482068406D00EA08082068006DEC
:1014300000F00F092068406D00EA09092068006D7E
:1014400000F0F00A2068406D00EA0A0A2068006D8A
:1014500000F0715B2068406D00EA0B0B2068006DA6
:1014600000F060700C902068406D0C9908400C9062
:101470002068456D2068066DC5F3002070B1C6F385
:10148000002058B100BF4FF480702168086500202B
:10149000CE49086000BF2046FFF7B2FFC5F38020A9
:1014A000C8B1C6F38020B0B12068D0F8DC000A9043
:1014B0002068D0F8E4000A9908400A9000BF4FF471
:1014C0008060216808650020C049086000BF204690
:1014D0000A9900F0A0FB67B100BFBD483840216801
:1014E0000865B80FB949086000BF39462046FFF7C4
:1014F0001BFEB8F1000F0ED000BFB54808EA00008F
:10150000216808654FEA9870B049086000BF4146FD
:10151000204600F082FBB9F1000F0ED000BFAC48AE
:1015200009EA0000216808654FEA9970A749086038
:1015300000BF4946204600F019FBBAF1000F0ED05B
:1015400000BFA3480AEA0000216808654FEA9A70C4
:101550009E49086000BF5146204600F03BFBC5F3A2
:10156000C02070B1C6F3C02058B100BF4FF4006076
:101570002168086500209549086000BF204600F0FA
:101580004DFBC5F34020C8B1C6F34020B0B1206880
:10159000D0F8D8000B902068D0F8E0000B990840F4
:1015A0000B9000BF4FF40070216808650020874948
:1015B000086000BF20460B9900F02EFBC5F3C04029
:1015C00070B1C6F3C04058B100BF4FF4002021688D
:1015D000086500207D49086000BF204600F0C4FA7D
:1015E000C5F3004070B1C6F3004058B100BF4FF4DE
:1015F00080302168086500207449086000BF2046DB
:1016000000F008FBC5F3804070B1C6F3804058B1CC
:1016100000BF4FF480202168086500206B490860F6
:1016200000BF204600F0F5FAC5F3404088B1C6F38C
:10163000404070B100BF4FF40030216808650020C1
:101640006249086000BFD4F89C0040F08000C4F8F4
:101650009C000C9870B100BF5D490C98084021684F
:1016600008650C98800F5949086000BF20460C9906
:10167000FFF7CAFDBBF1000F10D000BF54480BEAC2
:101680000000216808654FEA9B705049086000BF60
:10169000D4F89C0040EA0B00C4F89C004D49206837
:1016A00088427DD16068806800F00300002877D010
:1016B0006068006A00F00F0009906068406A09994C
:1016C000084009906068006A00F030000890606887
:1016D000406A0899084008906068006A00F4C07089
:1016E00007906068406A0799084007906068006A40
:1016F00000F4FC4006906068406A06990840069035
:101700006068006A00F4F02005906068406A0599FE
:10171000084005906068406A02906068006A019025
:10172000099830B10998616808622046099900F06B
:101730006DFA089830B108986168086220460899E7
:1017400000F066FA0298C0F38010A0B10198C0F3CF
:10175000801080B16068C06B000C04906068C06B42
:1017600000F03F0003904020616808622046DDE9F8
:10177000032100F04CFA079830B1079861680862BD
:101780002046079900F041FA069840B10698616832
:101790000862D4F89C0006990843C4F89C0000E055
:1017A0000AE0059840B1059861680862D4F89C0089
:1017B00005990843C4F89C00D4F89C0010B1204659
:1017C000FFF721FD0DB0BDE8F08F000010A800402C
:1017D000FFFFCF3F00A0004070B594B004464C22FC
:1017E000B34901A8FEF787FE14B9012014B070BDFB
:1017F000B0492068884203D1206800F5807060609D
:10180000A068B0F5407F00D100BF206C00B100BFE0
:10181000A06C00B100BF206D00B100BF206E00B110
:1018200000BFD4E91710084400B100BF94F8980035
:1018300028B9002084F89900204600F03DF920687E
:10184000806920F010002168886100F083FC054663
:101850000EE000F07FFC401B0A2809D9983460682C
:1018600040F001006060032004F898090120BDE702
:101870002068806900F008000828EAD020688069A4
:1018800040F001002168886100F064FC05460EE02C
:1018900000F060FC401B0A2809D99834606840F0C9
:1018A00001006060032004F8980901209EE7206889
:1018B000806900F001000028EAD02068806940F0CB
:1018C000020021688861207C012806D12068806997
:1018D00020F040002168886105E02068806940F0C0
:1018E000400021688861607C012806D120688069F9
:1018F00040F480402168886105E02068806920F418
:10190000804021688861A07C012806D12068806918
:1019100020F480502168886105E02068806940F4E7
:101920008050216888612068806920F44070A16837
:101930000843216888612068806920F0A40021683C
:1019400088612068006920F0100021680861E06863
:10195000012806D12068806940F004002168886170
:1019600020E0E068F0B1E068022815D020688069C6
:1019700040F08000216888612068006940F0100014
:1019800021680861E06803280CD12068806940F074
:1019900020002168886105E02068806940F020000F
:1019A00021688861207E401E4106E069401E41EAB0
:1019B0000020216A491E0843A18A491E40EA0140CD
:1019C0002168C861A068B0F5407F0FD1A06A401EB1
:1019D000E16A491E40EA0121206B401E41EA0011E4
:1019E000A08C401E41EA00402168C860206E38B1DA
:1019F0002068D0F8C000616E08432168C1F8C000BB
:101A0000D4E91710084460B12068D0F8C80020F06D
:101A1000070001AAA16E52F8211008432168C1F8FD
:101A2000C800206C60B12068D0F8BC0020F007002E
:101A300001AA616C52F8211008432168C1F8BC006A
:101A4000A06C68B12068D0F8BC0020F0700101AA39
:101A5000E06C52F8200041EA00102168C1F8BC0097
:101A6000206D68B12068D0F8BC0020F4E06101AAC4
:101A7000606D52F8200041EA00202168C1F8BC00E6
:101A80000C492068884205D16068806820F0030016
:101A900061688860002044F8940FA06001202071E4
:101AA000943C2046FEF7E2FF064630469EE60000E4
:101AB00038A0020800A0004010B5B8B004461421B8
:101AC00032A8FEF774FDC02102A8FEF770FD23497D
:101AD000206888423FD14FF400410020CDE9021038
:101AE00048031E9002A801F0A3FB08B1FEF783FF94
:101AF00000BF1B48006840F4807019490860084620
:101B0000006800F48070019000BF00BF00BF14485F
:101B10000C38006840F0080011490C39086008468C
:101B2000006800F00800019000BF00BF0320329061
:101B3000022033900020349035900920369032A94D
:101B4000084800F0F3F900221146132000F0B4FB1E
:101B5000132000F09DFB38B010BD000000A0004035
:101B6000EC440258000C02587047000070B504465F
:101B70000D4605F0010018B31249206888421FD1B4
:101B80001148C068114909880844B0F5807F07D919
:101B90004FF480710E48FEF70AFD00200B490880C3
:101BA0000B480A4909884318074A40212046FFF795
:101BB0002DFB0548808905490988084403490880A8
:101BC00070BD000000A00040C40900242C000024C7
:101BD000EC0900247047014691F8980001280CD1C7
:101BE000022081F898000868806920F001000A68E6
:101BF00090610020C1F89C007047D1F89C0040F033
:101C00000400C1F89C000120F6E770477047704758
:101C100070477047704770477047704770470000C3
:101C20002DE9F04104460E46002700BF4848007DDC
:101C3000012802D10220BDE8F08101204449087545
:101C400000BF00208861207900F0010030B101213F
:101C50004CF25030FFF702F900B10127207900F073
:101C60000200022806D102214CF25030FFF7F6F8AC
:101C700000B10127002F63D12068012828D16168B5
:101C80002069FFF79BF8207900F0010060B1012185
:101C90004CF25030FFF7E2F800B101272D48C06840
:101CA00020F008002B49C860207900F002000228CB
:101CB00046D102214CF25030FFF7D0F800B1012795
:101CC0002548006820F008002249C1F80C0137E0DF
:101CD0004FF0FF303060A5682CE02846226961682B
:101CE000FFF73CF8207900F0010060B101214CF2CF
:101CF0005030FFF7B3F807461648C06840F2047149
:101D000088431449C860207900F0020002280DD1F0
:101D100002214CF25030FFF7A1F807460E48006848
:101D200040F2047188430B49C1F80C010FB13560D2
:101D300005E06D1CD4E902100844A842CDD800BFCC
:101D400000BF00200249087500BF384673E7000055
:101D500018030024002000520C2100520E48C068D5
:101D600040F001000C49C8600846C06800F001005E
:101D700008B9012070470948006840F00100064991
:101D8000C1F80C010548006800F0010008B9012005
:101D9000F0E70020EEE70000002000520C21005286
:101DA0002DE9F05F83460C461746A046B9464FF032
:101DB000080A00BF4248007D012802D10220BDE888
:101DC000F09F01203E49087500BFB4F1006F04D3B5
:101DD000B4F1016F01D2012509E0B4F1016F04D320
:101DE000B4F1026F01D2022501E00120E7E70020F3
:101DF0003349886129464CF25030FFF72FF80646E8
:101E0000002E55D1012D06D12E48C06840F00200A9
:101E10002C49C86006E02C48006840F002002949BF
:101E2000C1F80C0100BF00BF00BFBFF36F8F00BF40
:101E300000BF00BF00BF00BF00BFBFF34F8F00BF98
:101E400000BF00BF00BFD9F80000C8F8000008F1CB
:101E5000040809F10409AAF1010000F0FF0ABAF12F
:101E6000000FF0D100BF00BF00BFBFF36F8F00BFF6
:101E700000BF00BF00BF00BF00BFBFF34F8F00BF58
:101E800000BF00BF29464CF25030FEF7E7FF064680
:101E9000012D06D10B48C06820F002000949C86036
:101EA00006E00948006820F002000649C1F80C016C
:101EB00000BF00200249087500BF30467FE70000E0
:101EC00018030024002000520C2100521348C0685F
:101ED00000F0010058B112481049486011484860AC
:101EE0000846C06800F0010008B1012070470E48A4
:101EF000006800F0010070B109480B49083908601A
:101F000008480649C1F804010748006800F00100CC
:101F100008B10120EAE70020E8E7000000200052B5
:101F200023016745AB89EFCD0C210052F8B502467D
:101F30000B4600216F4DD7E001278F401E6806EA4F
:101F40000704002C72D01E7906F00306012E04D07F
:101F50001E7906F00306022E13D190684F00032667
:101F6000BE40B0434F00DE68BE40304390605068D2
:101F700001268E40B0431E79C6F300168E403043D2
:101F800050601E7906F00306032E09D0D0684F007A
:101F90000326BE40B0434F009E68BE403043D06031
:101FA0001E7906F00306022E13D1CF0802F1200697
:101FB00056F827004E07F70E0F26BE40B0434F07D6
:101FC000FF0E1E69BE403043CF0802F1200646F8DE
:101FD000270010684F000326BE40B0431E7906F06C
:101FE00003064F00BE40304310605E6806F4403682
:101FF000002E78D000BF404E366846F002063E4FB5
:102000003E603E46366806F00206009600BF00BFFE
:102010003A4E8F0856F827008E07370F0F26BE401E
:10202000B043374EB24202D100262EE05BE0354E7F
:10203000B24201D1012628E0334EB24201D102263C
:1020400023E0324EB24201D103261EE0304EB242AE
:1020500001D1042619E02F4EB24201D1052614E029
:102060002D4EB24201D106260FE02C4EB24201D1D4
:1020700007260AE02A4EB24201D1082605E0294E81
:10208000B24201D1092600E00A268F073F0FBE4069
:1020900030431A4E8F0846F827004FF0B04630689C
:1020A000A0435E6806F4801606B120434FF0B046A8
:1020B00030607068A0435E6806F4001606B12043E5
:1020C0004FF0B04670606868A0435E6806F4003662
:1020D00006B1204368602868A0435E6806F4803635
:1020E00006B120432860491C1E68CE40002E7FF4B4
:1020F00023AFF8BD80000058F4440258080400588B
:10210000000002580004025800080258000C02584F
:10211000001002580014025800180258001C0258FF
:10212000002002580024025810B5426921EA020337
:1021300002EA010443EA0443836110BD0AB18161EC
:1021400001E00B048361704701480068000C704790
:102150000010005C01480068704700000C0000247B
:10216000034800680349097808440149086070473A
:102170000C0000241400002410B5032000F0DAF84D
:1021800002F008F910490968C1F303210F4A515CB4
:1021900001F01F0120FA01F40B48006800F00F0065
:1021A0001146085C00F01F0024FA00F0084908609E
:1021B000084804600F2000F00FF808B1012010BD9E
:1021C00000F054F80020FAE71844025884A00208EE
:1021D0001C0000241800002470B58AB00446102C9E
:1021E0000AD200222146762000F066F8762000F020
:1021F0004FF81948046002E001200AB070BD00BF2A
:102200001648006840F480201449086008460068B9
:1022100000F48020009000BF00BF01A902A802F0D6
:102220004BF802F0A5F845000D48B5FBF0F0461E4E
:102230000C480D49086040F2E7310B48C160466028
:1022400000210161816002F051FE18B9064802F0D8
:10225000E1FED2E70120D0E710000024F04402584C
:1022600040420F0000480140CC02002408B500BFE6
:102270000648006840F0020004490860084600680B
:1022800000F00200009000BF00BF08BDF4440258F7
:102290000146084600280DDB00BF00BF00F01F0309
:1022A00001229A4043099B0003F1E023C3F8002177
:1022B00000BF00BF00BF70472DE9F05F80460D46AC
:1022C000164606F0B1FB074639462A46334601F06A
:1022D0000700C0F1070ABAF1040F02D94FF0040A4F
:1022E00001E0C0F1070AD14600F1040ABAF1070F74
:1022F00002D24FF0000A01E0A0F1030AD4464FF0E9
:10230000010A0AFA09FAAAF1010A0AEA020A0AFA11
:102310000CFA4FF0010B0BFA0CFBABF1010B0BEAC3
:10232000030B4AEA0B042146404606F085FBBDE854
:10233000F09F000000BF00F00702064B19684FF63F
:10234000FF031940044B0B4343EA0221014B196080
:1023500000BF70470CED00E00000FA0500BF00BFB1
:1023600000BF00BF00BFBFF34F8F00BF00BF00BF63
:102370000948006800F4E06008490843001D064968
:10238000086000BF00BF00BFBFF34F8F00BF00BF9A
:1023900000BF00BF00BFFDE70CED00E00000FA0544
:1023A00001460A680120C1F8D804002081F8CC0455
:1023B000906940F000609061506D024B1843506589
:1023C0000020704703000010704702461068416209
:1023D00000207047F0B5034615461868446A21B9D5
:1023E00044EA05401E68B06219E01868806A04EB90
:1023F0001044002208E0186800F5827050F82200AE
:1024000004EB1044501CC2B2481E9042F3D844EA78
:102410000547186800F582704E1E40F826700020AF
:10242000F0BD10B50446D4F8E00404F06DFE10BD14
:1024300070B504460D4605EBC50304F1140101EB2C
:102440008301CA682946D4F8E00404F058FD70BD41
:1024500070B504460D4605EBC50304F5157101EB97
:102460008301CA682946D4F8E00404F0CCFD70BDAD
:1024700010B50446D4F8E00404F049FE10BD2DE97F
:10248000F04104460D4605F08000802808D105F093
:102490000F0000EBC00104F1140000EB810607E01F
:1024A00005F00F0000EBC00104F5157000EB81068C
:1024B0003146206806F078F807463846BDE8F081D6
:1024C00070B504460E4606F0800080280AD106F05A
:1024D0000F0000EBC00104F1140000EB81050120A6
:1024E000687009E006F00F0000EBC00104F51570FC
:1024F00000EB81050020687006F00F00287000BF17
:1025000094F89404012801D1022070BD012084F8C0
:10251000940400BF2946206805F0DEFB00BF0020C0
:1025200084F8940400BF00BFEFE770B504460E4680
:1025300006F00F002179884201D9012070BD06F014
:10254000800080280AD106F00F0000EBC00104F1E2
:10255000140000EB81050120687009E006F00F000F
:1025600000EBC00104F5157000EB810500206870D8
:102570000020A87006F00F00287000BF94F89404A3
:10258000012801D10220D9E7012084F8940400BF7A
:102590002946206805F09AFD00BF002084F89404C5
:1025A00000BF00BFCAE7024601F00F0000EBC00306
:1025B00002F5157000EB8300406970472DE9F04784
:1025C00005460E4690461F464FF0000906F0800073
:1025D00080280AD106F00F0000EBC00105F11400BD
:1025E00000EB81040120607009E006F00F0000EBB1
:1025F000C00105F5157000EB81040020607006F045
:102600000F002070C4F808802771607808B1207826
:102610006083022F01D10020607100BF95F89404FF
:10262000012802D10220BDE8F087012085F894043A
:1026300000BF2146286805F059FA00BF002085F840
:10264000940400BF4846EEE72DE9F04105460E46EA
:102650001746984606F00F0000EBC00105F515700F
:1026600000EB8104E760C4F81080002060616070B6
:1026700006F00F002070A879012800D1E761AA793F
:102680002146286805F0B6FD0020BDE8F08170B550
:1026900004460D4605F00F002179884201D901203A
:1026A00070BD05F0800080280AD105F00F0000EB16
:1026B000C00104F1140000EB81060120707007E0F6
:1026C00005EBC50104F5157000EB81060020707064
:1026D0000120B07005F00F00307000BF94F8940432
:1026E000012801D10220DBE7012084F8940400BF17
:1026F0003146206805F031FD05F00F0028B9A179B9
:1027000004F29C42206805F0A9FC00BF002084F878
:10271000940400BF00BFC3E72DE9F04105460E4613
:102720001746984606F00F0000EBC00105F11400B3
:1027300000EB8104E760C4F8108000206061012094
:10274000607006F00F002070A879012800D1E761C1
:10275000AA792146286805F04DFD0020BDE8F081EA
:102760002DE9FE4F0446D4F800B05E46206805F01F
:10277000FDFF002874D1206806F037F808B9BDE8DD
:10278000FE8F40F608008059C0F30D20C4F8D40431
:10279000206806F02AF800F00200022805D120681F
:1027A000406900F0020021684861206806F01DF8C9
:1027B00000F01000102845D12068806920F010003A
:1027C00021688861DBF8209009F00F0000EBC00160
:1027D00004F5157000EB810AC9F3434002281AD1B1
:1027E00047F6F07009EA000030B3C9F30A12584600
:1027F000DAF80C1005F0FEFFC9F30A11DAF80C0044
:102800000844CAF80C00C9F30A11DAF814000844A5
:10281000CAF8140010E0C9F3434006280CD108227E
:1028200004F29C41584605F0E5FFC9F30A11DAF8B5
:1028300014000844CAF814002068806940F01000B1
:1028400021688861206805F0D0FF00F40020B0F511
:10285000002F7BD10025206805F097FF029072E0E1
:1028600003E3029800F00100002868D0E9B2206874
:1028700005F0AEFF804608F0010048B1012106F5E1
:10288000306000EB451081602946204603F008F8CF
:1028900008F00800082809D1082106F5306000EB8F
:1028A000451081602946204602F0C8FF08F010005C
:1028B000102805D1102106F5306000EB451081602D
:1028C00008F00200022824D1DBF8140000F0800098
:1028D000802807D140F60400805940F4806140F61A
:1028E0000400815105EBC50104F5157000EB810A68
:1028F0009AF80300012806D100208AF80300E9B203
:10290000204600F0BDFA022106F5306000EB4510CC
:10291000816008F02000202805D1202106F53060D4
:1029200000EB4510816008F40050B0F5005F06D15F
:102930004FF4005106F5306000EB451081606D1CCE
:10294000029840080290029800288AD1206805F079
:102950004CFF00F48020B0F5802F7DD1206805F079
:102960000AFF029000259AE0029800F0010000287A
:1029700073D0E9B2206805F012FF804608F001002C
:10298000F0B305F00F0101208840019040F63400BB
:102990008159019821EA000040F634018851012153
:1029A00006F5106000EB45108160A079012824D164
:1029B00005EBC50104F1140000EB810005EBC50235
:1029C000C16804F1140000EB82008068014405EB4B
:1029D000C50204F1140000EB8200C1606DB905EB83
:1029E000C50104F1140000EB8100006928B904F26C
:1029F0009C420121206805F031FBE9B2204600E04D
:102A000001E0FFF715FD08F00800082805D10821AE
:102A100006F5106000EB4510816008F010001028EA
:102A200005D1102106F5106000EB4510816008F01B
:102A30004000402805D1402106F5106000EB45100C
:102A4000816008F0020002281DD12946584605F091
:102A500050FE05EBC50101E025E01CE004F1140087
:102A600000EB810A9AF80300012806D100208AF8B9
:102A70000300E9B2204600F0FAF9022106F51060E1
:102A800000EB4510816008F08000802803D12946C2
:102A9000204602F0A7FF6D1C0298400802900298A1
:102AA00000287FF461AF206805F09FFE00F0004031
:102AB000B0F1004F1CD140F60400805920F0010114
:102AC00040F60400815194F8CC04012807D100207D
:102AD00084F8CC0400212046FFF776FC02E0204673
:102AE00000F0FAFA2068406900F00040216848616F
:102AF000206805F07AFE00F40060B0F5006F0ED19A
:102B000040F60800805900F0010010B1204600F0A6
:102B10003BFB2068406900F4006021684861206840
:102B200005F063FE00F00060B0F1006F19D120687D
:102B3000406900F000602168486194F8CC0468B9ED
:102B4000012084F8CC042068406DC0F38300C4F8F1
:102B5000D00401212046FFF737FC02E0204600F0B8
:102B600013FB206805F041FE00F48050B0F5805F53
:102B70007ED140F60400805920F0010140F60400A7
:102B800081511021206805F0B4FD002732E04FF696
:102B90007F3106F5106000EB4710816006F510608C
:102BA00000EB4710006820F4001106F5106000EB00
:102BB000471001604FF67F3106F5306000EB47109B
:102BC000816006F5306000EB4710006820F40011CA
:102BD00006F5306000EB4710016006F5306000EB51
:102BE0004710006840F0006106F5306000EB4710C8
:102BF00001607F1C2079B842C9D840F61C0080597A
:102C000040F0011140F61C008151E07B70B1D6F814
:102C1000840840F00B01C6F8841840F6440080593F
:102C200040F00B0140F6440081510FE040F61400E3
:102C3000805942F22B01084340F614018851081FC5
:102C4000805940F00B014FF401608151D6F8000823
:102C500020F4FE60C6F80008A17904F29C422068C6
:102C600005F0FCF92068406900F48050216800E01C
:102C700000E04861206805F0B8FD00F40050B0F5B0
:102C8000005F17D1206804F099FF206805F05BFD14
:102C9000E07101F047FB0090E2792068009905F0AF
:102CA0002BFE204600F000FA2068406900F4005036
:102CB00021684861206805F098FD00F008000828A8
:102CC00008D1204600F00FFA2068406900F00800A3
:102CD00021684861206805F088FD00F080008028A8
:102CE00018D1DBF8180020F08000CBF8180001257F
:102CF0000DE005EBC50104F5157000EB8100C0780F
:102D0000012803D1E9B22046FFF7B9FB6D1C2079F9
:102D1000A842EED8206805F068FD00F48010B0F5F8
:102D2000801F2DD1012522E006F5106000EB451033
:102D3000D0F8009005EBC50104F1140000EB810010
:102D40000079012812D109F00040B0F1004F0DD1F7
:102D5000012105EBC50204F1140000EB8200C170F3
:102D6000E8B240F080012046FFF789FB6D1C207916
:102D7000A842D9D82068406900F4801021684861D1
:102D8000206805F032FD00F40010B0F5001F44D1BA
:102D9000012538E006F5306000EB4510D0F80090D2
:102DA00005EBC50104F5157000EB810000790128E1
:102DB00028D109F00040B0F1004F23D109F4803050
:102DC00094F8D41401F0010188421BD1012105EBD4
:102DD000C50204F5157000EB8200C170DBF8180025
:102DE00040F08000CBF81800DBF8140000F0800001
:102DF00040B940F60400805940F4007140F60400E8
:102E0000815103E06D1C2079A842C3D800BF20681F
:102E1000406900F4001021684861206805F0E5FC75
:102E200000F08040B0F1804F08D12046FFF7F9FA5A
:102E30002068406900F0804021684861206805F002
:102E4000D4FC00F0040004280FD12068D0F80490CE
:102E500009F00400042802D12046FFF709FB20688E
:102E6000406840EA09002168486000BF87E470B507
:102E700004460D462946D4F8E00404F0B7F970BDC5
:102E800070B504460D462946D4F8E00404F0D2F9A2
:102E900070BD38B504460CB9012038BD94F89504CE
:102EA00028B9002084F89404204600F0A1F80320FB
:102EB00084F89504206805F0C9F8207C8DF800009E
:102EC00094E80F0004F08EFE20B1022084F89504EF
:102ED0000120E2E70021206805F0BCFC20B10220BF
:102EE00084F895040120D8E7002531E0012105EBA5
:102EF000C50204F1140000EB8200417005EBC5012E
:102F000004F1140000F8215005EBC50100EB81002D
:102F10004583002105EBC50204F1140000EB82009B
:102F2000017105EBC50204F1140000EB8200816021
:102F300005EBC50204F1140000EB8200C16005EB53
:102F4000C50204F1140000EB82000161681CC5B2E7
:102F50002079A842CADC00252AE0002105EBC50241
:102F600004F5157000EB8200417005EBC50104F516
:102F7000157000F82150002105EBC50200EB82001E
:102F8000017105EBC50204F5157000EB820081604C
:102F900005EBC50204F5157000EB8200C16005EB7E
:102FA000C50204F5157000EB82000161681CC5B212
:102FB0002079A842D1DC207C8DF8000094E80F0035
:102FC00004F054FF20B1022084F89504012064E746
:102FD00000206074012084F89504207B012802D130
:102FE0002046FFF7DDF9206804F02EFF002054E7AB
:102FF00010B5B8B00446142132A8FDF7D8FAC021A4
:1030000002A8FDF7D4FA25492068884243D14FF43D
:1030100080210020CDE902104FF44010249002A836
:1030200000F006F908B1FDF7E6FC00F0F7F800BF84
:103030001B48006840F00100194908600846006814
:1030400000F00100019000BF00BF4FF4C05032906B
:10305000022033900020349035900A20369032A917
:103060001048FEF763FF00BF0D480838006840F0C5
:1030700000600B49083908600846006800F00060ED
:10308000019000BF00BF002211466520FFF714F930
:103090006520FFF7FDF838B010BD000000000840C3
:1030A000E04402580000025870B504460125E0795A
:1030B00008B9002506E0E079022801D1012501E0E8
:1030C000FDF799FC2946D4F8E00404F05CF9D4F843
:1030D000E00404F003F970BD10B50446D4F8E00430
:1030E00004F032F910BD10B50446D4F8E00404F041
:1030F00036F910BD70B504460D4600BF94F894042F
:10310000012801D1022070BD012084F8940400BF81
:1031100065742946206805F0D1FB00BF002084F8C3
:10312000940400BF00BFEEE710B5044604F29C41D2
:10313000D4F8E00404F03EF910BD70B504462568EB
:1031400000BF94F89404012801D1022070BD012031
:1031500084F8940400BFE86800F0400030B1607B60
:10316000012803D1A86B40F48030A863206805F0E3
:1031700091FA206804F056FE00BF002084F8940401
:1031800000BF00BFE2E7000010B50446D4F8E00439
:1031900004F06DF92068D0F8000E40F001002168BD
:1031A000C1F8000EE07A28B10348006840F006003C
:1031B0000149086010BD000010ED00E070B5044644
:1031C00015480068C0F3800048B91348006800F053
:1031D0000700A04201D0012070BD0020FCE70E488E
:1031E000006820F0070020430B490860FEF7B2FF9B
:1031F000054607E0FEF7AEFF401BB0F57A7F01D928
:103200000120E9E7044808380068C0F3403000288E
:10321000F0D00020E0E700000C48025803480068A6
:1032200040F0807001490860704700000C48025867
:103230002DE9F04104460025A8464FF00062D4E98C
:10324000001011400020134659404040014331D145
:10325000A06E48B1B0F5801F0DD0B0F5001F11D0A1
:10326000B0F5401F16D114E0F948006840F4003072
:10327000F749086010E0022104F1080002F00EFC9A
:10328000054609E0022104F1280002F0B9FC0546D8
:1032900002E001E0012500BF00BF55B9EC48243031
:1032A000006820F44010A16E0843E9492431086009
:1032B00000E0A8464FF48073D4E9001019400020C4
:1032C0005940404001432ED1A06D05281BD2DFE8B4
:1032D00000F0030A11181900DD48006840F40030BE
:1032E000DB49086011E0002104F1080002F0D6FB80
:1032F00005460AE0002104F1280002F081FC0546A1
:1033000003E002E001E0012500BF00BF55B9D0484D
:103310002430006820F00700A16D0843CC49243117
:10332000086000E0A8464FF40073D4E9001019408B
:10333000002059404040014334D1E06D802818D02E
:1033400003DC40B140281DD10CE0C02818D0B0F5F6
:10335000807F17D115E0BE48006840F40030BC49BA
:10336000086011E0002104F1080002F097FB054617
:103370000AE0002104F1280002F042FC054603E0C7
:1033800002E001E0012500BF00BF55B9B04824307C
:10339000006820F4E070E16D0843AD492431086015
:1033A00000E0A8464FF48063D4E9001019400020E3
:1033B00059404040014339D1D4F8A800B0F5800FFE
:1033C0001AD004DC50B1B0F5001F1ED10DE0B0F5ED
:1033D000C00F18D0B0F5000F17D115E09C48006859
:1033E00040F400309A49086011E0002104F108001F
:1033F00002F054FB05460AE0002104F1280002F027
:10340000FFFB054603E002E001E0012500BF00BF2D
:103410005DB98F482C30006820F46000D4F8A81003
:1034200008438B492C31086000E0A8464FF4006245
:10343000D4E9001011400020134659404040014398
:1034400039D1D4F8AC00B0F1007F1AD004DC50B10F
:10345000B0F1807F1ED10DE0B0F1407F18D0B0F107
:10346000806F17D115E07A48006840F40030784941
:10347000086011E0002104F1080002F00FFB05468E
:103480000AE0002104F1280002F0BAFB054603E03F
:1034900002E001E0012500BF00BF5DB96C482C309F
:1034A000006820F0E060D4F8AC10084368492C3183
:1034B000086000E0A8464FF00073D4E9000118400E
:1034C000002158404940084328D1E06CA8B1102899
:1034D00004D0202809D0302810D10DE05C480068C5
:1034E00040F400305A4908600AE0022104F1080063
:1034F00002F0D4FA054603E002E001E0012500BF36
:1035000000BF55B952482030006820F03000E16C0F
:1035100008434F492031086000E0A8464FF480532B
:10352000D4E900101940002059404040014337D1F0
:10353000206EB0F5005F1AD004DC50B1B0F5805FAA
:103540001ED10DE0B0F5405F18D0B0F5804F17D117
:1035500015E03F48006840F400303D49086011E044
:10356000002104F1080002F099FA05460AE0002162
:1035700004F1280002F044FB054603E002E001E00C
:10358000012500BF00BF55B931482430006820F440
:10359000E040216E08432E492431086000E0A8462F
:1035A0004FF40053D4E90010194000205940404026
:1035B000014335D1606EB0F5403F1ED007DC68B1E5
:1035C000B0F5803F0BD0B0F5003F19D10EE0B0F55B
:1035D000802F13D0B0F5A02F12D110E012E00121FE
:1035E00004F1080002F05AFA05460BE0012104F14B
:1035F000280002F005FB054604E003E002E001E0DC
:10360000012500BF00BF55B911482430006820F4DF
:10361000E020616E08430E492431086000E0A846AE
:103620004FF48043D4E9000118400021584049403C
:10363000084337D1D4F8B000B0F1405F20D009DCA6
:1036400078B1B0F1805F0DD0B0F1005F1BD110E018
:103650002C440258B0F1804F13D0B0F1A04F12D1DA
:1036600010E012E0012104F1080002F017FA05460B
:103670000BE0012104F1280002F0C2FA054604E043
:1036800003E002E001E0012500BF00BF4DB9FE48A4
:10369000006820F0E040D4F8B0100843FA49086010
:1036A00000E0A8464FF40042D4E900101140002089
:1036B000134659404040014329D1206FB0B1B0F1C9
:1036C000805F03D0B0F1005F11D108E0EE482C38E4
:1036D000006840F40030EC492C39086009E0012111
:1036E00004F1080002F0DAF9054602E001E00125E4
:1036F00000BF00BF55B9E4480838006820F04050CA
:10370000216F0843E0490839086000E0A8464FF0FF
:103710008072D4E900101140002013465940404007
:1037200001432AD1A06CB8B1012804D002280BD0E3
:10373000032812D10FE0D4482C38006840F4003040
:10374000D1492C3908600AE0022104F1080002F096
:10375000A5F9054603E002E001E0012500BF00BF36
:1037600055B9C9480C38006820F00300A16C084323
:10377000C5490C39086000E0A8464FF48002D4E93E
:1037800000011040002113465840494008437DD1B4
:10379000BE48006840F48070BC490860FEF7DAFC5F
:1037A000064606E0FEF7D6FC801B642801D90325F7
:1037B00005E0B648006800F480700028F2D000BF31
:1037C00085BBB1481830006800F44070B4F8B410FC
:1037D00001F44071884213D0AB481830006820F4DF
:1037E0004077A9481830006840F48030A649183165
:1037F00008600846006820F48030086008460760CA
:10380000D4F8B400B0F5807F15D1FEF7A3FC0646CE
:1038100009E0FEF79FFC801B41F28831884202D903
:10382000032507E038E0984818300068C0F34000EE
:103830000028EED000BF55BB00BFB4F8B40000F4C0
:103840004070B0F5407F0ED18F484838006820F4B2
:103850007C518F4AD4F8B400104041EA10108A49D4
:103860004839086007E088484838006820F47C50F0
:10387000854948390860844818300068B4F8B410A5
:10388000C1F30B0108438049183101E005E001E074
:10389000086002E0A84600E0A8460122D4E9000141
:1038A00010400021134658404940084330D1E06F92
:1038B00018281AD005DC48B1082808D0102817D1DC
:1038C0000CE0202812D0282812D110E012E00121AB
:1038D00004F1080002F0E2F805460BE0012104F1D2
:1038E000280002F08DF9054604E003E002E001E063
:1038F000012500BF00BF55B96348001F006820F0D4
:103900003800E16F08436049091F086000E0A846DD
:103910000222D4E9000110400021134658404940DA
:10392000084329D1A06F062816D2DFE800F003046F
:103930000B12131412E0012104F1080002F0AEF89A
:1039400005460BE0012104F1280002F059F9054673
:1039500004E003E002E001E0012500BF00BF55B92B
:103960004948001F006820F00700A16F084346493E
:10397000091F086000E0A8460423D4E9001019409C
:10398000002059404040014329D1D4F89400062832
:1039900016D2DFE800F003040B12131412E0012129
:1039A00004F1080002F07AF805460BE0012104F169
:1039B000280002F025F9054604E003E002E001E0FA
:1039C000012500BF00BF4DB92F48006820F0070057
:1039D000D4F8941008432C49086000E0A84620233E
:1039E000D4E900011840002158404940084337D12C
:1039F000D4F89000B0F1405F1ED007DC68B1B0F1A0
:103A0000805F0BD0B0F1005F19D10EE0B0F1804FB4
:103A100013D0B0F1A04F12D110E012E0002104F158
:103A2000080002F03BF805460BE0022104F12800F3
:103A300002F0E6F8054604E003E002E001E00125BB
:103A400000BF00BF5DB91048001F006820F0E040D3
:103A5000D4F8901008430C49091F086000E0A846FC
:103A60004023D4E900101940002059404040014350
:103A70003CD1D4F89C00B0F5406F25D00EDCA0B14D
:103A8000B0F5806F12D005E0584402580048025843
:103A9000FFFCFF0FB0F5006F19D10EE0B0F5805FAD
:103AA00013D0B0F5A05F12D110E012E0002104F1B4
:103AB000080001F0F3FF05460BE0022104F12800A5
:103AC00002F09EF8054604E003E002E001E0012573
:103AD00000BF00BF4DB9FE48006820F4E050D4F8A4
:103AE0009C100843FA49086000E0A8468023D4E906
:103AF00000101940002059404040014335D1D4F80E
:103B0000A000B0F5C04F1ED007DC68B1B0F5005F73
:103B10000BD0B0F5804F19D10EE0B0F5004F13D0A7
:103B2000B0F5204F12D110E012E0002104F108009E
:103B300001F0B4FF05460BE0022104F1280002F079
:103B40005FF8054604E003E002E001E0012500BF64
:103B500000BF4DB9DE48006820F46040D4F8A010E2
:103B60000843DB49086000E0A8460823D4E90010B8
:103B70001940002059404040014317D1D4F8840037
:103B8000B0F5805F07D1022104F1280002F038F877
:103B900008B14FF00108CE48001F006820F44050E3
:103BA000D4F884100843CA49091F08601023D4E9D7
:103BB00000101940002059404040014315D1D4F86D
:103BC0009800B0F5807F07D1022104F1280002F0AF
:103BD00017F808B14FF00108BD48006820F44070A4
:103BE000D4F898100843BA4908604FF40022D4E989
:103BF000000110400021134658404940084327D196
:103C0000D4F8A40030B1B0F5803F0AD0B0F5003F41
:103C10000FD10DE0002104F1080001F03FFF05463F
:103C200009E0022104F1280001F0EAFF054602E064
:103C300001E0012500BF00BF4DB9A548006820F490
:103C40004030D4F8A4100843A149086000E0A84619
:103C50004FF48023D4E90001184000215840494026
:103C600008432DD1D4F88800B0F5801F06D0B0F5F8
:103C7000001F0CD0B0F5401F11D10FE094482C3834
:103C8000006840F4003092492C39086009E00121B5
:103C900004F1280001F0B4FF054602E001E001252F
:103CA00000BF00BF5DB98A48001F006820F44010C3
:103CB000D4F8881008438649091F086000E0A84628
:103CC0004FF48032D4E900011040002113465840DF
:103CD0004940084325D1206D18B1B0F5803F10D17F
:103CE00008E07B482C38006840F4003078492C39D3
:103CF000086008E0022104F1080001F0CFFE05464B
:103D000001E0012500BF00BF55B971480C380068BB
:103D100020F48030216D08436D490C39086000E0C3
:103D2000A8464FF00052D4E900101140002013467D
:103D300059404040014307D1022104F1280001F01D
:103D40005FFF08B14FF001084FF40033D4E90001E0
:103D50001840002158404940084329D1D4F8800038
:103D6000A0B1B0F5807F06D0B0F5007F0CD0B0F5E3
:103D7000407F0CD109E056482C38006840F40030F0
:103D800053492C39086004E003E002E001E001251A
:103D900000BF00BF5DB94E48001F006820F44070AE
:103DA000D4F8801008434A49091F086000E0A8467B
:103DB0004FF48012D4E900101140002013465940FE
:103DC0004040014309D142480838006820F00040D3
:103DD000616F08433E49083908604FF08052D4E9CA
:103DE00000101140002013465940404001430AD1C1
:103DF00037484838006820F48040D4F8B8100843A9
:103E00003349483908604FF40012D4E900101140DA
:103E10000020134659404040014309D12C4808383E
:103E2000006820F08070E16E084329490839086075
:103E30004FF08042D4E90010114000201346594051
:103E40004040014311D100BF21484838006820F4A8
:103E500000401F494839086008460068D4F8BC1083
:103E600008431B494839086000BF4FF00042D4E9BD
:103E7000001011400020134659404040014309D131
:103E800013480C38006820F04050616D0843104919
:103E90000C3908604FF40002D4E9001011400020F2
:103EA00013465940404001430AD10948001F0068A9
:103EB00020F44000D4F88C1008430549091F08601D
:103EC000012300216068184001224940504001E070
:103ED00058440258014306D104F1080001F0DEFD08
:103EE000054605B1A84602220021606810404940FD
:103EF0005040014307D1012104F1080001F0CEFD3B
:103F0000054605B1A8460423002061681940042233
:103F100040405140084307D1022104F1080001F05C
:103F2000BDFD054605B1A84608230021606818407C
:103F3000082249405040014306D104F1280001F015
:103F40005FFE054605B1A8461022002160681040BA
:103F500049405040014307D1012104F1280001F0FC
:103F60004FFE054605B1A846202200206168114099
:103F700040405140084307D1022104F1280001F0DC
:103F80003FFE054605B1A846B8F1000F02D100205A
:103F9000BDE8F0810120FBE72DE9F04104460D4624
:103FA00014B90120BDE8F081BD48006800F00F00A1
:103FB000A8420ED2BA48006820F00F002843B84942
:103FC00008600846006800F00F00A84201D00120F8
:103FD000E8E7207800F0040004280ED1B1492069F8
:103FE000096801F07001884207D9AE48006820F0E6
:103FF000700021690843AB490860207800F0080090
:10400000082811D1A749091D6069096801F07001EC
:10401000884209D9A348001D006820F0700061693A
:104020000843A049091D0860207800F010001028FE
:1040300011D19C49091DA069096801F4E061884219
:1040400009D99848001D006820F4E060A169084380
:104050009449091D0860207800F02000202811D123
:1040600090490831E069096801F07001884209D976
:104070008C480830006820F07000E16908438949E5
:1040800008310860207800F0020002280ED185492E
:10409000E068096801F00F01884207D9814800688B
:1040A00020F00F00E16808437E490860207800F0A6
:1040B0000100002850D07B48006820F47060A1689F
:1040C0000843784908606068022807D175481838A5
:1040D0000068C0F34040F8B9012063E76068032836
:1040E00007D1704818380068C0F34060A0B90120BB
:1040F00058E76068012807D16A4818380068C0F39B
:10410000002048B901204DE7664818380068C0F320
:10411000800008B9012045E762480838006820F0AF
:104120000700616808435F4908390860FEF712F824
:10413000064608E0FEF70EF8801B41F288318842FF
:1041400001D903202EE757480838006800F03800EE
:104150006168B0EBC10FEDD1207800F002000228B9
:104160000ED15049E068096801F00F01884207D27A
:104170004C48006820F00F00E16808434949086096
:104180004748006800F00F00A8420ED94448006874
:1041900020F00F002843424908600846006800F0FC
:1041A0000F00A84201D00120FCE6207800F00400B6
:1041B00004280ED13B492069096801F0700188424A
:1041C00007D23848006820F070002169084335495B
:1041D0000860207800F00800082811D13149091D35
:1041E0006069096801F07001884209D22D48001DFC
:1041F000006820F07000616908432A49091D0860C1
:10420000207800F01000102811D12649091DA0695E
:10421000096801F4E061884209D22248001D006863
:1042200020F4E060A16908431E49091D0860207858
:1042300000F02000202811D11A490831E0690968EE
:1042400001F07001884209D216480830006820F059
:104250007000E169084313490831086000F09AF8DA
:1042600010490968C1F303210F4A515C01F01F0195
:1042700020FA01F70B48006800F00F001146085CB7
:1042800000F01F0027FA00F008490860084807609E
:1042900008480068FDF7A0FF8046404682E600001F
:1042A000002000521844025884A002081C00002478
:1042B00018000024100000243F220260174A1268F0
:1042C00002F007024260154A0832126802F4706276
:1042D0008260124A0832126802F00F02C2600F4A6E
:1042E0000832126802F0700202610C4A0C32126845
:1042F00002F070024261094A0C32126802F4E06274
:104300008261064A1032126802F07002C261044AE9
:10431000126802F00F020A60704700001044025851
:104320000020005210B500F035F80D490968C1F3BE
:1043300003210C4A515C01F01F0120FA01F40848E6
:10434000006800F00F001146085C00F01F0024FA1E
:1043500000F005490860054804600846006810BD83
:104360001844025884A002081C00002418000024ED
:1043700000B5FFF7D7FF05490968C1F30221044AD8
:10438000515C01F01F01C84000BD00001C440258F0
:1043900084A00208F0B5824E366806F0380636B1C1
:1043A000082E15D0102E15D0182E7DD114E07C4E7D
:1043B000103E3668C6F3401646B1794E103E366858
:1043C000C6F3C107774E26FA07F000E07548E5E02E
:1043D0007548E3E07548E1E0714E1836366806F03E
:1043E00003046F4E18363668C6F305116C4E1C3642
:1043F000366806F001056A4E24363668C6F3CC06E8
:1044000016FB05F601EE106AB8EE410A002971D0DC
:1044100024B1012C50D0022C6DD16DE0604E103EC5
:104420003668C6F340163EB35D4E103E3668C6F39E
:10443000C1075C4E26FA07F301EE103AF8EE411A76
:1044400001EE101AB8EE411A81EE812A9FED581A3A
:10445000C0EE011A524E20363668C6F3080601EE49
:10446000106AB8EE411A31EE811AF7EE001A31EEF9
:10447000211A62EE010A1EE001EE101AB8EE411A8E
:10448000DFED4C1A81EE812A9FED491AC0EE011A28
:10449000434E20363668C6F3080601EE106AB8EEC1
:1044A000411A31EE811A00E076E0F7EE001A31EEA3
:1044B000211A62EE010A5BE001EE101AB8EE411A11
:1044C0009FED3D2AC2EE011A9FED391A80EE012AB6
:1044D000334E20363668C6F3080601EE106AB8EE91
:1044E000411A32EE011AB7EE002A31EE021A61EEDD
:1044F000810A3DE04EE01DE001EE101AB8EE411ACF
:10450000DFED2E1A81EE812A9FED291AC0EE011AE5
:10451000234E20363668C6F3080601EE106AB8EE60
:10452000411A31EE811AF7EE001A31EE211A62EECD
:10453000010A1DE001EE101AB8EE411A9FED1E2A85
:10454000C2EE011A9FED1A1A80EE012A144E20368F
:104550003668C6F3080601EE106AB8EE411A32EE6C
:10456000011AB7EE002A31EE021A61EE810A00BF8D
:1045700000BF0B4E20363668C6F34626721C01EE8D
:10458000102AB8EE411AC0EE811ABCEEE11A11EE03
:10459000100A00E0002001E0034800BF00BFF0BDAA
:1045A000104402580090D00300093D0040787D017E
:1045B000000000460024744C0024744A20BCBE4B0A
:1045C0002DE9F047044614B90120BDE8F0872078B2
:1045D00000F00100002870D0FA48006800F03808A8
:1045E000F8481830D0F80090B8F1100F06D0B8F1A4
:1045F000180F0FD109F0030002280BD1F148103831
:104600000068C0F3404000286AD06068002867D185
:104610000120DAE700BF6068B0F5803F08D1E948C3
:104620001038006840F48030E649103908602EE008
:10463000606868B9E3481038006820F48030E149C8
:10464000103908600846006820F4802008601EE0E9
:104650006068B0F5A02F0DD1DA481038006840F43A
:104660008020D849103908600846006840F480303E
:1046700008600CE0D3481038006820F48030D1493D
:10468000103908600846006820F48020086000BFE8
:10469000606898B1FDF75EFD054606E0FDF75AFD3E
:1046A000401B642801D903208FE7C64810380068F2
:1046B000C0F340400028F1D012E012E0FDF74AFDBF
:1046C000054606E0FDF746FD401B642801D903209E
:1046D0007BE7BC4810380068C0F340400028F1D1A7
:1046E00000BF207800F00200022874D1B5480068AD
:1046F00000F03808B3481830D0F80090B8F1000F37
:1047000005D0B8F1180F56D109F00300D0BBAD4861
:1047100010380068C0F3800018B1E06808B90120C3
:1047200053E7A8481038006820F01900E1680843F2
:10473000A44910390860FDF70DFD054606E0FDF7B8
:1047400009FD401B022801D903203EE79D4810388F
:104750000068C0F380000028F1D000BFFDF7F4FC32
:1047600041F2030188421AD8206940280BD19548AC
:104770000C38006820F47C3040F4003091490C394A
:10478000086017E017E08F480C38006820F47C3090
:10479000216940EA01308B490C3908600AE08948F8
:1047A0000C38006820F0FE40217C40EA0160854919
:1047B0000C39086066E0E06888B382481038006809
:1047C00020F01900E16808437E4910390860FDF7C0
:1047D000C1FC054607E056E0FDF7BCFC401B022883
:1047E00001D90320F1E6774810380068C0F3800053
:1047F0000028F1D000BFFDF7A7FC41F20301884279
:104800001AD8206940280BD16E480C38006820F473
:104810007C3040F400306B490C39086017E017E039
:1048200068480C38006820F47C30216940EA013087
:1048300064490C3908600AE062480C38006820F0CE
:10484000FE40217C40EA01605E490C39086019E0B5
:104850005C481038006820F001005A49103908609F
:10486000FDF778FC054606E0FDF774FC401B0228C6
:1048700001D90320A9E6534810380068C0F380002E
:104880000028F1D100BF207800F0100010287CD162
:104890004C48006800F038084A481830D0F80090BA
:1048A000B8F1080F06D0B8F1180F3DD109F0030098
:1048B000012839D1434810380068C0F3002020B1E6
:1048C000E069802801D001207FE600BFFDF73CFCB5
:1048D00041F2030188421AD8206A20280AD13948B7
:1048E0000C38006820F0F84040F0804035490C3921
:1048F000086018E033480C38006820F0F84094F85D
:10490000201040EA81602F490C3908600BE02D48E7
:10491000001F006820F07C5094F8201040EA0160ED
:104920002849091F086066E0E06978B32548103817
:10493000006840F08000234910390860FDF70AFC48
:10494000054606E0FDF706FC401B022801D90320BE
:104950003BE61C4810380068C0F300200028F1D066
:1049600000BFFDF7F1FB41F2030188421CD8206A29
:1049700020280CD113480C38006820F0F84040F093
:10498000804010490C3908601AE035E01CE00D4801
:104990000C38006820F0F84094F8201040EA81605C
:1049A00008490C3908600BE00648001F006820F039
:1049B0007C5094F8201040EA01600249091F086009
:1049C00019E0000010440258FA48006820F0800006
:1049D000F8490860FDF7BEFB054606E0FDF7BAFBA7
:1049E000401B022801D90320EFE5F2480068C0F31C
:1049F00000200028F2D100BF207800F0080008282D
:104A000036D16069D0B1EB487430006840F00100E5
:104A1000E84974310860FDF79DFB054606E0FDF7A7
:104A200099FB401B022801D90320CEE5E1487430F0
:104A30000068C0F340000028F1D019E0DD48743070
:104A4000006820F00100DB4974310860FDF782FB4B
:104A5000054606E0FDF77EFB401B022801D9032036
:104A6000B3E5D44874300068C0F340000028F1D1A9
:104A7000207800F02000202830D1A069B8B1CD48BE
:104A8000006840F48050CB490860FDF763FB0546A1
:104A900006E0FDF75FFB401B022801D9032094E5E7
:104AA000C4480068C0F340300028F2D016E0C14886
:104AB000006820F48050BF490860FDF74BFB0546B5
:104AC00006E0FDF747FB401B022801D903207CE5E7
:104AD000B8480068C0F340300028F2D1207800F0D8
:104AE000040004287DD1B448006840F48070B249C5
:104AF0000860FDF72FFB054606E0FDF72BFB401B8A
:104B0000642801D9032060E5AB48006800F4807098
:104B10000028F2D000BFA068012808D1A548703055
:104B2000006840F00100A349703108602DE0A068E2
:104B300068B9A0487030006820F001009D497031CC
:104B400008600846006820F0040008601DE0A068C6
:104B500005280DD197487030006840F00400954951
:104B6000703108600846006840F0010008600CE001
:104B700090487030006820F001008E497031086064
:104B80000846006820F00400086000BFA068A0B1DB
:104B9000FDF7E0FA054608E0FDF7DCFA401B41F2BC
:104BA0008831884201D903200FE5824870300068BF
:104BB000C0F340000028EFD013E0FDF7CBFA054624
:104BC00008E0FDF7C7FA401B41F28831884201D95D
:104BD0000320FAE4774870300068C0F340000028F2
:104BE000EFD1606A00287DD072481030006800F074
:104BF0003800182877D0606A022875D16D4800689F
:104C000020F080706B490860FDF7A4FA054606E0C5
:104C1000FDF7A0FA401B022801D90320D5E465481E
:104C20000068C0F340600028F2D100BFD4E90A1048
:104C300041EA00105F492831096840F2F33291439C
:104C400008435C4928310860208E401EC0F30800EC
:104C5000616B491E4FF47E4202EA41210843218FD5
:104C6000491ED20102EA014108433C21095D491E67
:104C7000120202EA016108434E493031086000BF68
:104C8000081F006820F00100091F086049483430FF
:104C900000684FF6F8718843A16C40EAC1004549AD
:104CA0003431086043482C30006820F00C00216C3F
:104CB000084340492C3108600846006820F0020093
:104CC000616C08433B492C3108600846006840F499
:104CD000803008600846006840F4003008600846EC
:104CE000006802E093E038E01FE040F480200860B4
:104CF0000846006840F0010008602E48006840F057
:104D000080702C490860FDF725FA054606E0FDF79E
:104D100021FA401B022801D9032056E425480068E7
:104D2000C0F340600028F2D071E02248006820F013
:104D3000807020490860FDF70DFA054606E0FDF792
:104D400009FA401B022801D903203EE419480068F3
:104D5000C0F340600028F2D159E0164828300768B7
:104D6000144830300668606A012821D007F003013A
:104D7000A06A81421CD1C7F30511E06A884217D1AD
:104D8000C6F30801206B401E814211D1606B401EAA
:104D9000C6F3462188420BD1A06B401EC6F30641E4
:104DA000884205D1E06B401EC6F30661884205D0FB
:104DB00001200AE4004402580048025815480068DF
:104DC000C0F3CC07A06CB84221D012480838006864
:104DD00020F001000F4908390860FDF7BBF90546CE
:104DE00000BFFDF7B7F9401BFBD00A4800684FF63B
:104DF000F8718843A16C40EAC10006490860054883
:104E00000838006840F001000249083908600020B5
:104E10004AE400003444025870477047704700006D
:104E200030B502460B4600BF92F83C00012801D184
:104E3000022030BD012082F83C0000BF022082F831
:104E40003D001068416810688468214D1068A842D0
:104E500003D0204D1068A84203D121F47001586896
:104E6000014321F070011868014310684160184D3A
:104E70001068A8421BD01068B0F1804F17D0164DB3
:104E80001068A84213D0154D1068A8420FD0144DD9
:104E90001068A8420BD00F4D1068A84207D0114DE2
:104EA0001068A84203D0104D1068A84205D124F024
:104EB00080049868044310688460012082F83D00F3
:104EC00000BF002082F83C0000BF00BFB1E7000037
:104ED00000000140000401400004004000080040C0
:104EE000000C0040001800400040014010B504468E
:104EF0000CB9012010BD94F83D0028B9002084F8B9
:104F00003C00204600F02AF8022084F83D00211DD4
:104F1000206801F071F8012084F8480000BF84F88F
:104F20003E0001213F2001554020015541200155FF
:104F3000422001554320015500BF00BF012084F8E5
:104F4000440045200155462001554720015500BF2A
:104F5000012084F83D000020CCE7000038B504466D
:104F600028492068884216D100BF2748006840F0D1
:104F70000200254908600846006800F00200009021
:104F800000BF00BF002201211D20FDF795F91D2063
:104F9000FDF77EF934E01D492068884216D100BF34
:104FA0001948006840F00400174908600846006886
:104FB00000F00400009000BF00BF002211461E2038
:104FC000FDF77AF91E20FDF763F919E01049206812
:104FD000884215D100BF0C48006840F008000A491B
:104FE00008600846006800F00800009000BF00BF9D
:104FF000002201213220FDF75FF93220FDF748F948
:1050000038BD000000040040E84402580008004099
:10501000000C0040014691F83D00012801D001201C
:105020007047022081F83D000868C06840F0010028
:105030000B68D8601C4B086898421BD00868B0F118
:10504000804F17D0194B0868984213D0184B086846
:1050500098420FD0174B086898420BD0164B08683F
:10506000984207D0154B0868984203D0144B086843
:10507000984210D108688068124B00EA0302062AA1
:105080000FD0B2F5803F0CD00868006840F00100F6
:105090000B68186005E00868006840F001000B68C4
:1050A00018600020BCE70000000001400004004040
:1050B00000080040000C00400004014000180040BF
:1050C000004001400700010001460868C06820F068
:1050D00001000A68D06000BF0868006A41F211123E
:1050E000104050B90868006A9210104028B908684A
:1050F000006820F001000A68106000BF012081F8FC
:105100003D000020704700002DE9F04104460D46A7
:10511000002700BF94F83C00012802D10220BDE81E
:10512000F081012084F83C0000BF022084F83D009B
:10513000206886684048064026F47F4620688660DE
:105140002868702826D00CDC00F00F01002966D1F9
:105150000011072863D2DFE800F0555657584B3747
:105160004100B0F1101F52D009DCB0F5805F10D0C3
:10517000B0F5005F1BD0B0F5801F50D146E0A0F520
:1051800080102038002843D0102842D0202846D153
:1051900040E046E0D5E902136A68206800F09AFF13
:1051A0002068866846F077062068866039E0D5E991
:1051B00002136A68206800F08DFF2068806840F460
:1051C0008040216888602CE0EA686968206800F007
:1051D00099FF5021206800F089FF22E0EA686968A1
:1051E000206800F0A2FF6021206800F07FFF18E037
:1051F000EA686968206800F085FF4021206800F0B7
:1052000075FF0EE000BF00BF00BF00BF00BF00BFC2
:1052100000BF00BF2968206800F068FF01E0012797
:1052200000BF00BF012084F83D0000BF002084F8CB
:105230003C0000BF384672E788FFCEFF704770B56C
:1052400004462068C6682068056905F00200022847
:1052500019D106F00200022815D1401F216808610B
:10526000012020772068806900F0030018B12046F3
:10527000FFF7E4FF05E0204600F0ADF8204600F01F
:10528000ABF80020207705F00400042819D106F0BF
:105290000400042815D1C04321680861022020774A
:1052A0002068806900F4407018B12046FFF7C6FFFF
:1052B00005E0204600F08FF8204600F08DF8002031
:1052C000207705F00800082819D106F00800082802
:1052D00015D1C04321680861042020772068C06987
:1052E00000F0030018B12046FFF7A8FF05E02046B4
:1052F00000F071F8204600F06FF80020207705F0EC
:105300001000102819D106F01000102815D1C04344
:1053100021680861082020772068C06900F4407087
:1053200018B12046FFF78AFF05E0204600F053F849
:10533000204600F051F80020207705F0010048B128
:1053400006F0010030B16FF00100216808612046CD
:1053500000F044F805F08000802804D005F40050E7
:10536000B0F5005F0AD106F08000802806D16FF406
:105370000250216808612046FFF74FFD05F4807058
:10538000B0F5807F0AD106F08000802806D16FF446
:105390008070216808612046FFF73EFD05F040005F
:1053A000402809D106F04000402805D1C0432168BB
:1053B0000861204600F058F805F02000202809D1A7
:1053C00006F02000202805D1C0432168086120464E
:1053D000FFF724FD70BD70477047000010B504460C
:1053E00018492068884202D1FCF7BAFE29E0164924
:1053F0002068884214D11548007840B91448FFF756
:1054000009FE1448FFF706FE0120104908704FF40A
:1054100080611148FCF788FE104803F071FC10E031
:105420000F492068884202D103F03EFC09E00D4993
:105430002068884205D141150748FCF775FE03F046
:1054400025FF10BD00480140000400400900002471
:105450003402002480020024000002584801002485
:1054600000080040000C0040704700BFFEE730B568
:105470000B46002100BF16E00A24B4EB107F05D9CB
:10548000302404EB107403F8114005E0412404EBD0
:1054900010740A3C03F81140000100254C00641C04
:1054A0001D554C1CE1B29142E6DB30BD30B50246E1
:1054B000002300200BE0012484400C402CB1C0F1FB
:1054C0000F050124AC401C43A3B2441CE0B21028D9
:1054D000F1DB138030BD30B50246002300200BE025
:1054E000012484400C402CB1C0F107050124AC40DC
:1054F0001C43E3B2441CE0B20828F1DB137030BD5A
:105500000A88828043F698234A689A4211DA91ED1C
:10551000010AB8EEC00ADFED0B0A80EE201AB7EEE2
:10552000C10A9FED091B20EE010BB7EEC00B80ED09
:10553000050A9FED070A80ED060A9FED050A80ED3A
:10554000070A704700A08C466E861BF0F9210940BF
:105550000000000010B51D481D490860002088604B
:1055600000211B48C16001744174817401214161B3
:1055700081610F21C16104210162012141628162C7
:105580000F21C16204210163002141630121816374
:105590000021C16320210164042141640021816450
:1055A0000421C16400210165042141650021816558
:1055B000C165202101660021416604218166FCF756
:1055C0000BF908B1FBF717FA10BD000000A000406E
:1055D0004801002400B587B0142102A8FAF7E7FFBC
:1055E00000BF2648006840F0800024490860084653
:1055F000006800F08000019000BF00BF00BF0846B7
:10560000006840F0080008600846006800F00800E4
:10561000019000BF00BF00BF0846006840F00100D5
:1056200008600846006800F00100019000BF00BF5C
:1056300000224FF400711248FCF780FD00224FF465
:10564000C0611048FCF77AFD4FF400700290012011
:10565000039000200490059002A90948FCF766FC1D
:105660004FF4C06002900120039000200490059048
:1056700002A90448FCF75AFC07B000BDE0440258F8
:10568000000C02580000025800B587B000200390BB
:1056900004900590069000900190029013481449E0
:1056A0000860EF204860002111488160F921C16045
:1056B000002101618161FFF719FC08B1FBF79BF93B
:1056C0004FF48050039003A90948FFF71DFD08B16E
:1056D000FBF791F900200090029069460448FFF71B
:1056E0009FFB08B1FBF787F907B000BD000400403D
:1056F000E801002400B587B00020039004900590D5
:105700000690009001900290144815490860EF201F
:10571000486000211248816040F2CF71C1600021D1
:1057200001618161FFF7E2FB08B1FBF764F94FF417
:105730008050039003A90A48FFF7E6FC08B1FBF785
:105740005AF900200090029069460548FFF768FB6F
:1057500008B1FBF750F907B000BD00000008004099
:105760003402002400B587B0002003900490059017
:105770000690009001900290144815490860EF20AF
:10578000486000211248816040F2E731C160002189
:1057900001618161FFF7AAFB08B1FBF72CF94FF417
:1057A0008050039003A90A48FFF7AEFC08B1FBF74D
:1057B00022F900200090029069460548FFF730FB6F
:1057C00008B1FBF718F907B000BD0000000C00405D
:1057D0008002002410B500220E490F4801F04CFB56
:1057E00008B1FBF708F90D490B4801F081FE08B13B
:1057F000FBF701F90A49084800F02CFF08B1FBF754
:10580000FAF8054801F076FF08B1FBF7F4F8FDF768
:1058100005FD10BD38000024EC0E0024BC0000245F
:105820009800002400BFFEE700BFFEE710B5024865
:10583000FCF796FF10BD0000C82300242DE9F047B7
:1058400004460D4626683746D6F8408007F5306096
:1058500000EB4510D0F80890104880450BD909F4AA
:105860000040B0F5004F06D14FF4004107F530601D
:1058700000EB451081602046FDF756FC0748804547
:1058800008D9A079012805D104F29C4201212068A1
:1058900002F0E4FB0020BDE8F08700000A30544F1E
:1058A0002DE9F04705460C46D5F800904E46D9F84C
:1058B00040A006F5306000EB4410D0F80880A879CD
:1058C000012855D108F0080008280FD14348824527
:1058D0000BD908F40040B0F5004F7BD14FF40041E4
:1058E00006F5306000EB4410816073E008F02000A2
:1058F000202806D1202106F5306000EB441081609D
:1059000068E008F02800002864D1344882450CD9AA
:1059100008F40040B0F5004F07D14FF4004106F500
:10592000306000EB4410816054E004EBC40105F5E5
:10593000157000EB810706F5306000EB4410396A02
:105940000069C0F31200081A786164B9386930B987
:1059500005F29C420121286802F080FB03E079698E
:10596000F8680844F860E1B22846FCF771FD31E0C0
:105970001B4882451BD108F40040B0F5004F07D109
:105980004FF4004106F5306000EB4410816021E0E7
:1059900008F02000202805D1202106F5306000EB1A
:1059A00044108160E1B22846FCF752FD12E06CB968
:1059B00004EBC40105F5157000EB8100006928B9FE
:1059C00005F29C420021286802F048FBE1B228461B
:1059D000FCF73EFD0020BDE8F08700000A30544F80
:1059E0000A31544F2DE9F84F07460E46D7F800907C
:1059F000C84606EBC60107F1140000EB8104D4E9A8
:105A00000410884202D90120BDE8F88FD4E90401CE
:105A1000451AA068A84200D2A568E81C4FEA900A7F
:105A200017E0D4E90401451AA068A84200D2A5688D
:105A3000E81C4FEA900AB879ABB2F2B2009048463F
:105A4000E16802F0CDFFE0682844E0606069284426
:105A5000606108F5106000EB4610806980B2504527
:105A600006D3D4E90410884202D220690028D8D194
:105A7000D4E9040188420ED806F00F01012000FA93
:105A800001FB40F6340050F8080020EA0B0040F615
:105A9000340141F808000020B6E770472DE9F041D5
:105AA00004460E4600275548006800F0030003280E
:105AB00002D10120BDE8F08150482838006820F06C
:105AC00080604E4928390860FCF744FB054606E033
:105AD000FCF740FB401B022801D90320EAE74748B6
